:1000000061EF00F009500B02F3CF01F0F4CF00F0E4
:100010000C02F35000260A500B02F3500020026E2F
:100020008EEF00F00750085C05E28B8294928B9073
:10003000949004D08B9294928B8094909CEF00F0DB
:100040000950016A085C03E208C000F00CD0006AA5
:10005000080E0A6E083600360950005CD8B0006EF3
:1000600001360A2EF7D71200EA6A080EE96EEF5041
:100070000DE0060E016E006A002EFED7012EFBD7A2
:100080007B0E006E002EFED7EF2EF3D7120007C0B6
:1000900008F00A0E096ED4DF00501009956A8C6EC4
:1000A000070E086EE1DF07C008F00A0E096EC8DF10
:1000B00001502009956A8C6E070E086ED5DF9FEF00
:1000C00000F0F86AD09E810EAF6EA60EAC6E900E58
:1000D000AB6EC180C182C184C196070EB46EC1905F
:1000E000C182C184C186C19CC28CC28EC18EC280B5
:1000F000D26A230E056E0A0E066EC284C2B4FED703
:10010000C4CF03F0C3CF07F0C4CF08F0C4CF0AF0C8
:10011000C3CF09F00C6A640E0B6E74D702C008F0EE
:100120000230026E02323F0E021602C006F006C016
:1001300007F005C008F076D706C007F0A8D706502C
:10014000055C06E20650076E9EA8FED7AD6E05D090
:0E0150000650076E9EA8FED7AD6ECFD70300F7
:020000040030CA
:0E00000000220E0E000081000FC00FE00F4026
:00000001FF
;PIC18F458
;CRC=C33F  CREATED="14-mai-19 02:34"
